{
  "_format": "hh-sol-artifact-1",
  "contractName": "RandomNumber",
  "sourceName": "contracts/RandomNumber.sol",
  "abi": [
    {
      "inputs": [],
      "name": "getNumber",
      "outputs": [
        {
          "internalType": "uint256",
          "name": "",
          "type": "uint256"
        }
      ],
      "stateMutability": "view",
      "type": "function"
    },
    {
      "inputs": [],
      "name": "setNumber",
      "outputs": [],
      "stateMutability": "nonpayable",
      "type": "function"
    }
  ],
  "bytecode": "0x60806040526000805534801561001457600080fd5b50610253806100246000396000f3fe608060405234801561001057600080fd5b50600436106100365760003560e01c80634154b2431461003b578063f2c9ecd814610045575b600080fd5b610043610063565b005b61004d6100a8565b60405161005a919061012b565b60405180910390f35b6103e8334260005460405160200161007d939291906100ee565b6040516020818303038152906040528051906020012060001c6100a091906101b0565b600081905550565b60008054905090565b6100c26100bd82610146565b610182565b82525050565b6100d181610178565b82525050565b6100e86100e382610178565b6101a6565b82525050565b60006100fa82866100b1565b60148201915061010a82856100d7565b60208201915061011a82846100d7565b602082019150819050949350505050565b600060208201905061014060008301846100c8565b92915050565b600061015182610158565b9050919050565b600073ffffffffffffffffffffffffffffffffffffffff82169050919050565b6000819050919050565b600061018d82610194565b9050919050565b600061019f82610210565b9050919050565b6000819050919050565b60006101bb82610178565b91506101c683610178565b9250826101d6576101d56101e1565b5b828206905092915050565b7f4e487b7100000000000000000000000000000000000000000000000000000000600052601260045260246000fd5b60008160601b905091905056fea264697066735822122038cdd5644ca5de5c6960c9e9ce84ca0074d8dbe75ca8089d8b377a700bfbadcd64736f6c63430008070033",
  "linkReferences": {},
  "deployedLinkReferences": {}
}