{
  "_format": "hh-sol-artifact-1",
  "contractName": "AiBuddy",
  "sourceName": "contracts/AiBuddy.sol",
  "abi": [
    {
      "inputs": [
        {
          "internalType": "uint64",
          "name": "subscriptionId",
          "type": "uint64"
        }
      ],
      "stateMutability": "nonpayable",
      "type": "constructor"
    },
    {
      "inputs": [
        {
          "internalType": "address",
          "name": "have",
          "type": "address"
        },
        {
          "internalType": "address",
          "name": "want",
          "type": "address"
        }
      ],
      "name": "OnlyCoordinatorCanFulfill",
      "type": "error"
    },
    {
      "anonymous": false,
      "inputs": [
        {
          "indexed": true,
          "internalType": "address",
          "name": "from",
          "type": "address"
        },
        {
          "indexed": true,
          "internalType": "address",
          "name": "to",
          "type": "address"
        }
      ],
      "name": "OwnershipTransferRequested",
      "type": "event"
    },
    {
      "anonymous": false,
      "inputs": [
        {
          "indexed": true,
          "internalType": "address",
          "name": "from",
          "type": "address"
        },
        {
          "indexed": true,
          "internalType": "address",
          "name": "to",
          "type": "address"
        }
      ],
      "name": "OwnershipTransferred",
      "type": "event"
    },
    {
      "anonymous": false,
      "inputs": [
        {
          "indexed": false,
          "internalType": "uint256",
          "name": "requestId",
          "type": "uint256"
        },
        {
          "indexed": false,
          "internalType": "string[]",
          "name": "randomWords",
          "type": "string[]"
        }
      ],
      "name": "RequestFulfilled",
      "type": "event"
    },
    {
      "anonymous": false,
      "inputs": [
        {
          "indexed": false,
          "internalType": "uint256",
          "name": "requestId",
          "type": "uint256"
        },
        {
          "indexed": false,
          "internalType": "uint32",
          "name": "numWords",
          "type": "uint32"
        }
      ],
      "name": "RequestSent",
      "type": "event"
    },
    {
      "anonymous": false,
      "inputs": [
        {
          "indexed": false,
          "internalType": "uint256",
          "name": "requestId",
          "type": "uint256"
        },
        {
          "indexed": false,
          "internalType": "bool",
          "name": "fulfilled",
          "type": "bool"
        },
        {
          "indexed": false,
          "internalType": "string[]",
          "name": "randomWords",
          "type": "string[]"
        }
      ],
      "name": "RequestStatusChecked",
      "type": "event"
    },
    {
      "inputs": [],
      "name": "acceptOwnership",
      "outputs": [],
      "stateMutability": "nonpayable",
      "type": "function"
    },
    {
      "inputs": [
        {
          "internalType": "uint256",
          "name": "_requestId",
          "type": "uint256"
        }
      ],
      "name": "getRequestStatus",
      "outputs": [
        {
          "internalType": "bool",
          "name": "fulfilled",
          "type": "bool"
        },
        {
          "internalType": "string[]",
          "name": "randomWords",
          "type": "string[]"
        }
      ],
      "stateMutability": "view",
      "type": "function"
    },
    {
      "inputs": [],
      "name": "lastRequestId",
      "outputs": [
        {
          "internalType": "uint256",
          "name": "",
          "type": "uint256"
        }
      ],
      "stateMutability": "view",
      "type": "function"
    },
    {
      "inputs": [],
      "name": "owner",
      "outputs": [
        {
          "internalType": "address",
          "name": "",
          "type": "address"
        }
      ],
      "stateMutability": "view",
      "type": "function"
    },
    {
      "inputs": [
        {
          "internalType": "uint256",
          "name": "requestId",
          "type": "uint256"
        },
        {
          "internalType": "uint256[]",
          "name": "randomWords",
          "type": "uint256[]"
        }
      ],
      "name": "rawFulfillRandomWords",
      "outputs": [],
      "stateMutability": "nonpayable",
      "type": "function"
    },
    {
      "inputs": [
        {
          "internalType": "uint256",
          "name": "",
          "type": "uint256"
        }
      ],
      "name": "requestIds",
      "outputs": [
        {
          "internalType": "uint256",
          "name": "",
          "type": "uint256"
        }
      ],
      "stateMutability": "view",
      "type": "function"
    },
    {
      "inputs": [],
      "name": "requestRandomWords",
      "outputs": [
        {
          "internalType": "uint256",
          "name": "requestId",
          "type": "uint256"
        }
      ],
      "stateMutability": "nonpayable",
      "type": "function"
    },
    {
      "inputs": [
        {
          "internalType": "uint256",
          "name": "",
          "type": "uint256"
        }
      ],
      "name": "s_requests",
      "outputs": [
        {
          "internalType": "bool",
          "name": "fulfilled",
          "type": "bool"
        },
        {
          "internalType": "bool",
          "name": "exists",
          "type": "bool"
        }
      ],
      "stateMutability": "view",
      "type": "function"
    },
    {
      "inputs": [
        {
          "internalType": "address",
          "name": "to",
          "type": "address"
        }
      ],
      "name": "transferOwnership",
      "outputs": [],
      "stateMutability": "nonpayable",
      "type": "function"
    }
  ],
  "bytecode": "0x60a06040527f4b09e658ed251bcafeebbc69400383d49f344ace09b9576fe248bb02c003fe9f60001b600655620186a0600760006101000a81548163ffffffff021916908363ffffffff1602179055506003600760046101000a81548161ffff021916908361ffff1602179055506001600760066101000a81548163ffffffff021916908363ffffffff1602179055503480156200009c57600080fd5b50604051620023d0380380620023d08339818101604052810190620000c291906200040a565b33806000737a1bac17ccc5b313516c5e16fb24f7659aa5ebed8073ffffffffffffffffffffffffffffffffffffffff1660808173ffffffffffffffffffffffffffffffffffffffff168152505050600073ffffffffffffffffffffffffffffffffffffffff168273ffffffffffffffffffffffffffffffffffffffff160362000182576040517f08c379a000000000000000000000000000000000000000000000000000000000815260040162000179906200049d565b60405180910390fd5b816000806101000a81548173ffffffffffffffffffffffffffffffffffffffff021916908373ffffffffffffffffffffffffffffffffffffffff160217905550600073ffffffffffffffffffffffffffffffffffffffff168173ffffffffffffffffffffffffffffffffffffffff1614620002095762000208816200029160201b60201c565b5b505050737a1bac17ccc5b313516c5e16fb24f7659aa5ebed600360006101000a81548173ffffffffffffffffffffffffffffffffffffffff021916908373ffffffffffffffffffffffffffffffffffffffff16021790555080600360146101000a81548167ffffffffffffffff021916908367ffffffffffffffff1602179055505062000531565b3373ffffffffffffffffffffffffffffffffffffffff168173ffffffffffffffffffffffffffffffffffffffff160362000302576040517f08c379a0000000000000000000000000000000000000000000000000000000008152600401620002f9906200050f565b60405180910390fd5b80600160006101000a81548173ffffffffffffffffffffffffffffffffffffffff021916908373ffffffffffffffffffffffffffffffffffffffff1602179055508073ffffffffffffffffffffffffffffffffffffffff1660008054906101000a900473ffffffffffffffffffffffffffffffffffffffff1673ffffffffffffffffffffffffffffffffffffffff167fed8889f560326eb138920d842192f0eb3dd22b4f139c87a2c57538e05bae127860405160405180910390a350565b600080fd5b600067ffffffffffffffff82169050919050565b620003e481620003c5565b8114620003f057600080fd5b50565b6000815190506200040481620003d9565b92915050565b600060208284031215620004235762000422620003c0565b5b60006200043384828501620003f3565b91505092915050565b600082825260208201905092915050565b7f43616e6e6f7420736574206f776e657220746f207a65726f0000000000000000600082015250565b6000620004856018836200043c565b915062000492826200044d565b602082019050919050565b60006020820190508181036000830152620004b88162000476565b9050919050565b7f43616e6e6f74207472616e7366657220746f2073656c66000000000000000000600082015250565b6000620004f76017836200043c565b91506200050482620004bf565b602082019050919050565b600060208201905081810360008301526200052a81620004e8565b9050919050565b608051611e7c62000554600039600081816101c8015261021c0152611e7c6000f3fe608060405234801561001057600080fd5b50600436106100935760003560e01c8063a168fa8911610066578063a168fa891461010c578063d8a4676f1461013d578063e0c862891461016e578063f2fde38b1461018c578063fc2a88c3146101a857610093565b80631fe543e31461009857806379ba5097146100b45780638796ba8c146100be5780638da5cb5b146100ee575b600080fd5b6100b260048036038101906100ad91906113b7565b6101c6565b005b6100bc610286565b005b6100d860048036038101906100d39190611413565b61041b565b6040516100e5919061144f565b60405180910390f35b6100f661043f565b60405161010391906114ab565b60405180910390f35b61012660048036038101906101219190611413565b610468565b6040516101349291906114e1565b60405180910390f35b61015760048036038101906101529190611413565b6104a6565b60405161016592919061164b565b60405180910390f35b610176610652565b604051610183919061144f565b60405180910390f35b6101a660048036038101906101a191906116a7565b6108a8565b005b6101b06108bc565b6040516101bd919061144f565b60405180910390f35b7f000000000000000000000000000000000000000000000000000000000000000073ffffffffffffffffffffffffffffffffffffffff163373ffffffffffffffffffffffffffffffffffffffff161461027857337f00000000000000000000000000000000000000000000000000000000000000006040517f1cf993f400000000000000000000000000000000000000000000000000000000815260040161026f9291906116d4565b60405180910390fd5b61028282826108c2565b5050565b600160009054906101000a900473ffffffffffffffffffffffffffffffffffffffff1673ffffffffffffffffffffffffffffffffffffffff163373ffffffffffffffffffffffffffffffffffffffff1614610316576040517f08c379a000000000000000000000000000000000000000000000000000000000815260040161030d9061175a565b60405180910390fd5b60008060009054906101000a900473ffffffffffffffffffffffffffffffffffffffff169050336000806101000a81548173ffffffffffffffffffffffffffffffffffffffff021916908373ffffffffffffffffffffffffffffffffffffffff1602179055506000600160006101000a81548173ffffffffffffffffffffffffffffffffffffffff021916908373ffffffffffffffffffffffffffffffffffffffff1602179055503373ffffffffffffffffffffffffffffffffffffffff168173ffffffffffffffffffffffffffffffffffffffff167f8be0079c531659141344cd1fd0a4f28419497f9722a3daafe3b4186f6b6457e060405160405180910390a350565b6004818154811061042b57600080fd5b906000526020600020016000915090505481565b60008060009054906101000a900473ffffffffffffffffffffffffffffffffffffffff16905090565b60026020528060005260406000206000915090508060000160009054906101000a900460ff16908060000160019054906101000a900460ff16905082565b600060606002600084815260200190815260200160002060000160019054906101000a900460ff1661050d576040517f08c379a0000000000000000000000000000000000000000000000000000000008152600401610504906117c6565b60405180910390fd5b6000600260008581526020019081526020016000206040518060600160405290816000820160009054906101000a900460ff161515151581526020016000820160019054906101000a900460ff1615151515815260200160018201805480602002602001604051908101604052809291908181526020016000905b828210156106345783829060005260206000200180546105a790611815565b80601f01602080910402602001604051908101604052809291908181526020018280546105d390611815565b80156106205780601f106105f557610100808354040283529160200191610620565b820191906000526020600020905b81548152906001019060200180831161060357829003601f168201915b505050505081526020019060010190610588565b50505050815250509050806000015181604001519250925050915091565b6000600360009054906101000a900473ffffffffffffffffffffffffffffffffffffffff1673ffffffffffffffffffffffffffffffffffffffff16635d3b1d30600654600360149054906101000a900467ffffffffffffffff16600760049054906101000a900461ffff16600760009054906101000a900463ffffffff16600760069054906101000a900463ffffffff166040518663ffffffff1660e01b81526004016107039594939291906118be565b6020604051808303816000875af1158015610722573d6000803e3d6000fd5b505050506040513d601f19601f820116820180604052508101906107469190611926565b90506040518060600160405280600015158152602001600115158152602001600067ffffffffffffffff8111156107805761077f611274565b5b6040519080825280602002602001820160405280156107b357816020015b606081526020019060019003908161079e5790505b508152506002600083815260200190815260200160002060008201518160000160006101000a81548160ff02191690831515021790555060208201518160000160016101000a81548160ff021916908315150217905550604082015181600101908051906020019061082692919061113a565b509050506004819080600181540180825580915050600190039060005260206000200160009091909190915055806005819055507fcc58b13ad3eab50626c6a6300b1d139cd6ebb1688a7cced9461c2f7e762665ee81600760069054906101000a900463ffffffff1660405161089d929190611953565b60405180910390a190565b6108b0610f7e565b6108b98161100e565b50565b60055481565b6002600083815260200190815260200160002060000160019054906101000a900460ff16610925576040517f08c379a000000000000000000000000000000000000000000000000000000000815260040161091c906117c6565b60405180910390fd5b60006040518061028001604052806040518060400160405280600581526020017f6170706c6500000000000000000000000000000000000000000000000000000081525081526020016040518060400160405280600681526020017f62616e616e61000000000000000000000000000000000000000000000000000081525081526020016040518060400160405280600681526020017f636865727279000000000000000000000000000000000000000000000000000081525081526020016040518060400160405280600381526020017f646f67000000000000000000000000000000000000000000000000000000000081525081526020016040518060400160405280600881526020017f656c657068616e7400000000000000000000000000000000000000000000000081525081526020016040518060400160405280600681526020017f666c6f776572000000000000000000000000000000000000000000000000000081525081526020016040518060400160405280600681526020017f677569746172000000000000000000000000000000000000000000000000000081525081526020016040518060400160405280600581526020017f686f75736500000000000000000000000000000000000000000000000000000081525081526020016040518060400160405280600981526020017f69636520637265616d000000000000000000000000000000000000000000000081525081526020016040518060400160405280600681526020017f6a756e676c65000000000000000000000000000000000000000000000000000081525081526020016040518060400160405280600481526020017f6b6974650000000000000000000000000000000000000000000000000000000081525081526020016040518060400160405280600581526020017f6c656d6f6e00000000000000000000000000000000000000000000000000000081525081526020016040518060400160405280600881526020017f6d6f756e7461696e00000000000000000000000000000000000000000000000081525081526020016040518060400160405280600881526020017f6e6f7465626f6f6b00000000000000000000000000000000000000000000000081525081526020016040518060400160405280600681526020017f6f72616e6765000000000000000000000000000000000000000000000000000081525081526020016040518060400160405280600781526020017f70656e6775696e0000000000000000000000000000000000000000000000000081525081526020016040518060400160405280600581526020017f717565656e00000000000000000000000000000000000000000000000000000081525081526020016040518060400160405280600781526020017f7261696e626f770000000000000000000000000000000000000000000000000081525081526020016040518060400160405280600481526020017f737461720000000000000000000000000000000000000000000000000000000081525081526020016040518060400160405280600481526020017f7472656500000000000000000000000000000000000000000000000000000000815250815250905060008251905060008167ffffffffffffffff811115610df157610df0611274565b5b604051908082528060200260200182016040528015610e2457816020015b6060815260200190600190039081610e0f5790505b50905060005b82811015610ea75760006014868381518110610e4957610e4861197c565b5b6020026020010151610e5b91906119da565b9050848160148110610e7057610e6f61197c565b5b6020020151838381518110610e8857610e8761197c565b5b6020026020010181905250508080610e9f90611a3a565b915050610e2a565b5060016002600087815260200190815260200160002060000160006101000a81548160ff02191690831515021790555080600260008781526020019081526020016000206001019080519060200190610f0192919061113a565b507f14d27865908d9b37bb1426e4a3c752541ee445ed21c99fb8a4d93552b8f6dd9c8582604051610f33929190611a82565b60405180910390a17fc87f7c7cde1967938cf6505374a31508e9b97a9698e8fb8a8706d8b11041645e85600183604051610f6f93929190611ab2565b60405180910390a15050505050565b60008054906101000a900473ffffffffffffffffffffffffffffffffffffffff1673ffffffffffffffffffffffffffffffffffffffff163373ffffffffffffffffffffffffffffffffffffffff161461100c576040517f08c379a000000000000000000000000000000000000000000000000000000000815260040161100390611b3c565b60405180910390fd5b565b3373ffffffffffffffffffffffffffffffffffffffff168173ffffffffffffffffffffffffffffffffffffffff160361107c576040517f08c379a000000000000000000000000000000000000000000000000000000000815260040161107390611ba8565b60405180910390fd5b80600160006101000a81548173ffffffffffffffffffffffffffffffffffffffff021916908373ffffffffffffffffffffffffffffffffffffffff1602179055508073ffffffffffffffffffffffffffffffffffffffff1660008054906101000a900473ffffffffffffffffffffffffffffffffffffffff1673ffffffffffffffffffffffffffffffffffffffff167fed8889f560326eb138920d842192f0eb3dd22b4f139c87a2c57538e05bae127860405160405180910390a350565b828054828255906000526020600020908101928215611182579160200282015b828111156111815782518290816111719190611d74565b509160200191906001019061115a565b5b50905061118f9190611193565b5090565b5b808211156111b357600081816111aa91906111b7565b50600101611194565b5090565b5080546111c390611815565b6000825580601f106111d557506111f4565b601f0160209004906000526020600020908101906111f391906111f7565b5b50565b5b808211156112105760008160009055506001016111f8565b5090565b6000604051905090565b600080fd5b600080fd5b6000819050919050565b61123b81611228565b811461124657600080fd5b50565b60008135905061125881611232565b92915050565b600080fd5b6000601f19601f8301169050919050565b7f4e487b7100000000000000000000000000000000000000000000000000000000600052604160045260246000fd5b6112ac82611263565b810181811067ffffffffffffffff821117156112cb576112ca611274565b5b80604052505050565b60006112de611214565b90506112ea82826112a3565b919050565b600067ffffffffffffffff82111561130a57611309611274565b5b602082029050602081019050919050565b600080fd5b600061133361132e846112ef565b6112d4565b905080838252602082019050602084028301858111156113565761135561131b565b5b835b8181101561137f578061136b8882611249565b845260208401935050602081019050611358565b5050509392505050565b600082601f83011261139e5761139d61125e565b5b81356113ae848260208601611320565b91505092915050565b600080604083850312156113ce576113cd61121e565b5b60006113dc85828601611249565b925050602083013567ffffffffffffffff8111156113fd576113fc611223565b5b61140985828601611389565b9150509250929050565b6000602082840312156114295761142861121e565b5b600061143784828501611249565b91505092915050565b61144981611228565b82525050565b60006020820190506114646000830184611440565b92915050565b600073ffffffffffffffffffffffffffffffffffffffff82169050919050565b60006114958261146a565b9050919050565b6114a58161148a565b82525050565b60006020820190506114c0600083018461149c565b92915050565b60008115159050919050565b6114db816114c6565b82525050565b60006040820190506114f660008301856114d2565b61150360208301846114d2565b9392505050565b600081519050919050565b600082825260208201905092915050565b6000819050602082019050919050565b600081519050919050565b600082825260208201905092915050565b60005b83811015611570578082015181840152602081019050611555565b60008484015250505050565b600061158782611536565b6115918185611541565b93506115a1818560208601611552565b6115aa81611263565b840191505092915050565b60006115c1838361157c565b905092915050565b6000602082019050919050565b60006115e18261150a565b6115eb8185611515565b9350836020820285016115fd85611526565b8060005b85811015611639578484038952815161161a85826115b5565b9450611625836115c9565b925060208a01995050600181019050611601565b50829750879550505050505092915050565b600060408201905061166060008301856114d2565b818103602083015261167281846115d6565b90509392505050565b6116848161148a565b811461168f57600080fd5b50565b6000813590506116a18161167b565b92915050565b6000602082840312156116bd576116bc61121e565b5b60006116cb84828501611692565b91505092915050565b60006040820190506116e9600083018561149c565b6116f6602083018461149c565b9392505050565b600082825260208201905092915050565b7f4d7573742062652070726f706f736564206f776e657200000000000000000000600082015250565b60006117446016836116fd565b915061174f8261170e565b602082019050919050565b6000602082019050818103600083015261177381611737565b9050919050565b7f72657175657374206e6f7420666f756e64000000000000000000000000000000600082015250565b60006117b06011836116fd565b91506117bb8261177a565b602082019050919050565b600060208201905081810360008301526117df816117a3565b9050919050565b7f4e487b7100000000000000000000000000000000000000000000000000000000600052602260045260246000fd5b6000600282049050600182168061182d57607f821691505b6020821081036118405761183f6117e6565b5b50919050565b6000819050919050565b61185981611846565b82525050565b600067ffffffffffffffff82169050919050565b61187c8161185f565b82525050565b600061ffff82169050919050565b61189981611882565b82525050565b600063ffffffff82169050919050565b6118b88161189f565b82525050565b600060a0820190506118d36000830188611850565b6118e06020830187611873565b6118ed6040830186611890565b6118fa60608301856118af565b61190760808301846118af565b9695505050505050565b60008151905061192081611232565b92915050565b60006020828403121561193c5761193b61121e565b5b600061194a84828501611911565b91505092915050565b60006040820190506119686000830185611440565b61197560208301846118af565b9392505050565b7f4e487b7100000000000000000000000000000000000000000000000000000000600052603260045260246000fd5b7f4e487b7100000000000000000000000000000000000000000000000000000000600052601260045260246000fd5b60006119e582611228565b91506119f083611228565b925082611a00576119ff6119ab565b5b828206905092915050565b7f4e487b7100000000000000000000000000000000000000000000000000000000600052601160045260246000fd5b6000611a4582611228565b91507fffffffffffffffffffffffffffffffffffffffffffffffffffffffffffffffff8203611a7757611a76611a0b565b5b600182019050919050565b6000604082019050611a976000830185611440565b8181036020830152611aa981846115d6565b90509392505050565b6000606082019050611ac76000830186611440565b611ad460208301856114d2565b8181036040830152611ae681846115d6565b9050949350505050565b7f4f6e6c792063616c6c61626c65206279206f776e657200000000000000000000600082015250565b6000611b266016836116fd565b9150611b3182611af0565b602082019050919050565b60006020820190508181036000830152611b5581611b19565b9050919050565b7f43616e6e6f74207472616e7366657220746f2073656c66000000000000000000600082015250565b6000611b926017836116fd565b9150611b9d82611b5c565b602082019050919050565b60006020820190508181036000830152611bc181611b85565b9050919050565b60008190508160005260206000209050919050565b60006020601f8301049050919050565b600082821b905092915050565b600060088302611c2a7fffffffffffffffffffffffffffffffffffffffffffffffffffffffffffffffff82611bed565b611c348683611bed565b95508019841693508086168417925050509392505050565b6000819050919050565b6000611c71611c6c611c6784611228565b611c4c565b611228565b9050919050565b6000819050919050565b611c8b83611c56565b611c9f611c9782611c78565b848454611bfa565b825550505050565b600090565b611cb4611ca7565b611cbf818484611c82565b505050565b5b81811015611ce357611cd8600082611cac565b600181019050611cc5565b5050565b601f821115611d2857611cf981611bc8565b611d0284611bdd565b81016020851015611d11578190505b611d25611d1d85611bdd565b830182611cc4565b50505b505050565b600082821c905092915050565b6000611d4b60001984600802611d2d565b1980831691505092915050565b6000611d648383611d3a565b9150826002028217905092915050565b611d7d82611536565b67ffffffffffffffff811115611d9657611d95611274565b5b611da08254611815565b611dab828285611ce7565b600060209050601f831160018114611dde5760008415611dcc578287015190505b611dd68582611d58565b865550611e3e565b601f198416611dec86611bc8565b60005b82811015611e1457848901518255600182019150602085019450602081019050611def565b86831015611e315784890151611e2d601f891682611d3a565b8355505b6001600288020188555050505b50505050505056fea264697066735822122049ed017da4b1fe8c23f23f0a96834d8a06196356542391ef7f10352f2566cf7664736f6c63430008130033",
  "linkReferences": {},
  "deployedLinkReferences": {}
}